:100000000C9434000C9446000C9446000C9446006A
:100010000C9446000C9446000C9446000C94460048
:100020000C9446000C9446000C9446000C94460038
:100030000C9446000C9446000C9446000C94460028
:100040000C9446000C9446000C9446000C94460018
:100050000C9446000C9446000C9446000C94460008
:100060000C9446000C94460011241FBECFEFD8E03C
:10007000DEBFCDBF21E0A0E0B1E001C01D92A03005
:10008000B207E1F70E94A5000C9431030C94000024
:10009000E0EBF0E09081916090839081926090839A
:1000A000813019F08230B1F40BC0239A2B98E0EB29
:1000B000F0E08081806880838FEF8093B3000AC076
:1000C000539A5B98E0EBF0E08081806280838FEF51
:1000D0008093B400E1EBF0E080818260808308953A
:1000E000813019F0823081F518C0643620F08FEF2E
:1000F0008093B300089570E080E090E00E940202D7
:1001000023E333E343E250E40E94CE020E94C101A4
:100110000E94D4016093B3000895643620F08FEFFD
:100120008093B400089570E080E090E00E940202A5
:1001300023E333E343E250E40E94CE020E94C10174
:100140000E94D4016093B400089581E090E00E9481
:10015000C40066E970E081E090E00E94000181E067
:1001600090E00E94480082E090E00E94480064E62F
:1001700070E081E090E00E94700062E370E082E055
:1001800090E00E947000F3CF813019F08230B1F41A
:100190000BC0219A2998E0E8F0E080818064808398
:1001A0008081806880830AC0229A2A98E0E8F0E083
:1001B000808180618083808180628083E0E8F0E0DC
:1001C00080818260808380818E7F8083E1E8F0E09F
:1001D000808180618083808188608083808182606B
:1001E00080838FE39CE990938700809386009093AF
:1001F00089008093880090938B0080938A000895F3
:10020000CF92DF92EF92FF92CF93DF93813021F074
:10021000823009F04AC025C0C0918600D091870085
:1002200070E080E090E00E94000220E030E040E3D7
:1002300051E40E94CE020E94C1016B017C01BE010B
:10024000605D774080E090E00E940002A701960187
:100250000E945C010E94D401709389006093880021
:1002600024C0C0918600D091870070E080E090E0CB
:100270000E94000220E030E040E351E40E94CE0200
:100280000E94C1016B017C01BE01605D774080E08E
:1002900090E00E940002A70196010E945C010E946A
:1002A000D40170938B0060938A00DF91CF91FF900F
:1002B000EF90DF90CF9008955058BB27AA270ED01B
:1002C0001CC10DD130F012D120F031F49F3F11F458
:1002D0001EF402C10EF4E095E7FBCFC0E92F1ED15A
:1002E00080F3BA17620773078407950718F071F453
:1002F0009EF54DC10EF4E0950B2EBA2FA02D0B01EB
:10030000B90190010C01CA01A0011124FF27591B5A
:1003100099F0593F50F4503E68F11A16F040A22F60
:10032000232F342F4427585FF3CF469537952795D1
:10033000A795F0405395C9F77EF41F16BA0B620BD0
:10034000730B840BBAF09150A1F0FF0FBB1F661F17
:10035000771F881FC2F70EC0BA0F621F731F841F5A
:1003600048F4879577956795B795F7959E3F08F080
:10037000B3CF9395880F08F09927EE0F979587953F
:100380000895EED080F09F3740F491110EF400C133
:1003900060E070E080E89FE3089526F01B16611D81
:1003A000711D811D70C08AC0C1D088F09F5790F028
:1003B000B92F9927B751A0F0D1F0660F771F881F8A
:1003C000991F1AF0BA95C9F712C0B13081F0DFD089
:1003D000B1E00895DCC0672F782F8827B85F39F027
:1003E000B93FCCF3869577956795B395D9F73EF4E9
:1003F00090958095709561957F4F8F4F9F4F089591
:10040000E89409C097FB3EF49095809570956195AE
:100410007F4F8F4F9F4F9923A9F0F92F96E9BB2764
:100420009395F695879577956795B795F111F8CFE0
:10043000FAF4BB0F11F460FF1BC06F5F7F4F8F4F4B
:100440009F4F16C0882311F096E911C0772321F041
:100450009EE8872F762F05C0662371F096E8862FD9
:1004600070E060E02AF09A95660F771F881FDAF730
:10047000880F9695879597F9089597F99F6780E873
:1004800070E060E00895882371F4772321F098509C
:10049000872B762F07C0662311F499270DC0905142
:1004A000862B70E060E02AF09A95660F771F881F10
:1004B000DAF7880F9695879597F908959F3F31F061
:1004C000915020F4879577956795B795880F911D82
:1004D0009695879597F908959FEF80EC08950024ED
:1004E0000A941616170618060906089500240A9499
:1004F00012161306140605060895092E0394000C1F
:1005000011F4882352F0BB0F40F4BF2B11F460FFAD
:1005100004C06F5F7F4F8F4F9F4F089557FD9058D6
:10052000440F551F59F05F3F71F04795880F97FBB7
:10053000991F61F09F3F79F0879508951216130671
:100540001406551FF2CF4695F1DF08C016161706A0
:100550001806991FF1CF86957105610508940895D5
:10056000E5DFA0F0BEE7B91788F4BB279F3860F439
:100570001616B11D672F782F8827985FF7CF8695BD
:1005800077956795B11D93959639C8F30895E894CA
:10059000BB2766277727CB0197F908950BD0ADCFFE
:1005A0009EDF28F0A3DF18F0952309F066CF94CFE3
:1005B0001124EECFB3DFA0F3959FD1F3950F50E058
:1005C000551F629FF001729FBB27F00DB11D639F05
:1005D000AA27F00DB11DAA1F649F6627B00DA11DAB
:1005E000661F829F2227B00DA11D621F739FB00D51
:1005F000A11D621F839FA00D611D221F749F3327C1
:10060000A00D611D231F849F600D211D822F762F59
:100610006A2F11249F5750408AF0E1F088234AF056
:10062000EE0FFF1FBB1F661F771F881F91505040A2
:10063000A9F79E3F510570F020CFAACF5F3FECF3A2
:10064000983EDCF3869577956795B795F795E7958E
:100650009F5FC1F7FE2B880F911D9695879597F99F
:060660000895F894FFCF9D
:00000001FF
