S01D0000756C747261536F6E69635F41546D656761333238702E7372656348
S11300000C9434000C946D000C9446000C9446003F
S11300100C9446000C9446000C9446000C94460044
S11300200C9446000C9446000C9446000C94460034
S11300300C9446000C9446000C9446000C94460024
S11300400C9448000C9446000C9446000C94460012
S11300500C9446000C9446000C9446000C94460004
S11300600C9446000C94460011241FBECFEFD8E038
S1130070DEBFCDBF21E0A0E0B1E001C01D92A431FC
S1130080B207E1F70E9400010C94D2020C94000024
S11300901F920F920FB60F9211248F939F93AF93D9
S11300A0BF938091080190910901A0910A01B09138
S11300B00B010196A11DB11D8093080190930901C4
S11300C0A0930A01B0930B01BF91AF919F918F91BF
S11300D00F900FBE0F901F9018951F920F920FB69E
S11300E00F9211242F933F934F935F936F937F93BA
S11300F08F939F93AF93BF93EF9380910601909159
S11301000701892B11F581E090E09093070180931A
S11301100601209108013091090140910A01509192
S11301200B01E6B5AFEFB0E00E94BB02DC01CB01EE
S11301308E0F911DA11DB11D80931001909311018B
S1130140A0931201B093130128C0109207011092DA
S11301500601209108013091090140910A01509152
S11301600B01E6B5AFEFB0E00E94BB02DC01CB01AE
S11301708E0F911DA11DB11D80930C0190930D0153
S1130180A0930E01B0930F0116BC109208011092B7
S1130190090110920A0110920B01EF91BF91AF91E6
S11301A09F918F917F916F915F914F913F912F918B
S11301B00F900FBE0F901F901895559A5D98529806
S11301C05A98089585B5816085BD85B5826085BDE1
S11301D0EEE6F0E080818160808308955298E9E63C
S11301E0F0E0808181608083808182608083E89AEE
S11301F008955D9A85E38A95F1F700005D98089566
S1130200209A28983D9A45980E94DD000E94E200B9
S11302100E94EE0078940E94F90040910C015091E4
S11302200D0160910E0170910F0180911001909168
S11302301101A0911201B0911301481B590B509365
S11302400501409304018091040190910501880FF8
S1130250991F880F991F9093030180930201609165
S113026002017091030180E090E00E94ED0120E022
S113027030E048E652E40E9459010E9446010E947F
S1130280C1017093010160930001C5CF56D180F084
S11302909F3740F491110EF468C160E070E080E88B
S11302A09FE3089526F01B16611D711D811DD8C0A2
S11302B0F2C00CD00FC107D140F0FED030F021F4D1
S11302C05F3F19F0C7C0511150C1F3C014D198F366
S11302D09923C9F35523B1F3951B550BBB27AA27C3
S11302E062177307840738F09F5F5F4F220F331F35
S11302F0441FAA1FA9F333D00E2E3AF0E0E830D001
S113030091505040E695001CCAF729D0FE2F27D003
S1130310660F771F881FBB1F261737074807AB07D1
S1130320B0E809F0BB0B802DBF01FF2793585F4F46
S11303302AF09E3F510568F08DC017C15F3FECF372
S1130340983EDCF3869577956795B795F7959F5F0B
S1130350C9F7880F911D9695879597F90895E1E05F
S1130360660F771F881FBB1F621773078407BA07BE
S113037020F0621B730B840BBA0BEE1F88F7E09519
S11303800895C1D088F09F5790F0B92F9927B7519D
S1130390A0F0D1F0660F771F881F991F1AF0BA9545
S11303A0C9F712C0B13081F0DFD0B1E00895DCC0EC
S11303B0672F782F8827B85F39F0B93FCCF386953B
S11303C077956795B395D9F73EF490958095709598
S11303D061957F4F8F4F9F4F0895E89409C097FB15
S11303E03EF490958095709561957F4F8F4F9F4F08
S11303F09923A9F0F92F96E9BB279395F69587954C
S113040077956795B795F111F8CFFAF4BB0F11F40E
S113041060FF1BC06F5F7F4F8F4F9F4F16C08823B5
S113042011F096E911C0772321F09EE8872F762FEB
S113043005C0662371F096E8862F70E060E02AF02C
S11304409A95660F771F881FDAF7880F9695879518
S113045097F9089597F99F6780E870E060E0089540
S1130460882371F4772321F09850872B762F07C0C7
S1130470662311F499270DC09051862B70E060E03B
S11304802AF09A95660F771F881FDAF7880F9695DA
S1130490879597F908959F3F31F0915020F48795FF
S11304A077956795B795880F911D9695879597F9D8
S11304B008959FEF80EC089500240A9416161706F9
S11304C018060906089500240A9412161306140641
S11304D005060895092E0394000C11F4882352F0A4
S11304E0BB0F40F4BF2B11F460FF04C06F5F7F4F5C
S11304F08F4F9F4F089557FD9058440F551F59F043
S11305005F3F71F04795880F97FB991F61F09F3FFC
S113051079F087950895121613061406551FF2CF25
S11305204695F1DF08C0161617061806991FF1CF75
S113053086957105610508940895E5DFA0F0BEE78E
S1130540B91788F4BB279F3860F41616B11D672FBE
S1130550782F8827985FF7CF869577956795B11D93
S113056093959639C8F30895E894BB2766277727AF
S1130570CB0197F908950E94C602A59F900DB49FE0
S1130580900DA49F800D911D11240895A29FB00188
S1130590B39FC001A39F01D0B29F700D811D112490
S10B05A0911D0895F894FFCFAA
S9030000FC
