:100000000C9434000C9446000C9446000C94AB0302
:100010000C9446000C945C040C9446000C9446002E
:100020000C9446000C9446000C9446000C94460038
:100030000C9446000C9446000C9446000C94460028
:100040000C9473030C9446000C949B010C94460092
:100050000C9446000C9446000C9446000C94460008
:100060000C9446000C94460011241FBECFEFD8E03C
:10007000DEBFCDBF21E0A0E0B1E001C01D92AF33F3
:10008000B207E1F70E9420010C94DB070C940000FA
:10009000E0EBF0E09081916090839081926090839A
:1000A000813019F08230B1F40BC0239A2B98E0EB29
:1000B000F0E08081806880838FEF8093B3000AC076
:1000C000539A5B98E0EBF0E08081806280838FEF51
:1000D0008093B400E1EBF0E08081826080833C9A01
:1000E0003D9A0895882319F0813081F518C064364F
:1000F00020F08FEF8093B300089570E080E090E0EF
:100100000E94950623E333E343E250E40E94610733
:100110000E94EC050E9467066093B3000895643660
:1001200020F08FEF8093B400089570E080E090E0BD
:100130000E94950623E333E343E250E40E94610703
:100140000E94EC050E9467066093B4000895833016
:10015000D9F120F48130D1F040F509C0853009F49F
:1001600051C008F440C0863009F069C05AC04498B4
:1001700045986AE581E00E94030364E680E00E94FE
:10018000720064E681E00E9472000895449A459AE4
:100190006AE581E00E94030364E680E00E94720049
:1001A00064E681E00E94720008954498459864E6F0
:1001B00080E00E94720061E481E00E94030368E233
:1001C00081E00E94720008954498459868E280E0BA
:1001D0000E94720068E781E00E94030364E681E008
:1001E0000E9472000895449A459A68E280E00E9455
:1001F000720061E481E00E94030364E681E00E94F2
:1002000072000895449A459A64E680E00E94720064
:1002100068E781E00E94030368E281E00E947200C7
:100220000895449845986AE581E00E94030360E0E0
:1002300080E00E94720060E081E00E9472000895F8
:100240000E945F0381E00E94C70281E00E94480093
:1002500082E00E9448000E940D050E9436050E941F
:100260005F050E946B057894809121018234B1F181
:1002700018F48130C9F705C0883481F18A34A1F7B8
:100280002DC00E942F0580912E0190912F01A091E9
:100290003001B091310140912A0150912B016091C0
:1002A0002C0170912D01841B950BA60BB70B80932D
:1002B0003B0190933C01A0933D01B0933E0180919E
:1002C0003B0190913C01A0913D01B0913E010E9403
:1002D000120590933A0180933901C6CF0E945805C8
:1002E0008091260190912701A0912801B0912901C8
:1002F00040912201509123016091240170912501C8
:10030000841B950BA60BB70B809335019093360198
:10031000A0933701B0933801809135019091360157
:10032000A0913701B09138010E943B0590933401B0
:100330008093330199CF1F920F920FB60F92112421
:100340002F933F934F935F936F937F938F939F93DD
:10035000AF93BF93EF93FF930E946B0380932101B0
:100360008091000181117EC0809121018093320132
:10037000809100018F5F8093000180912101893479
:10038000D1F168F48634D9F020F4823409F0EEC05B
:1003900024C08734F1F1883409F0E8C055C08C34AA
:1003A000C1F120F48A3409F0E1C041C0823519F16D
:1003B000833509F0DBC086E00E94A700D7C080919A
:1003C000390190913A014F9720F080E00E94A700F8
:1003D000CDC086E00E94A700C9C0809133019091F2
:1003E00034014F9720F081E00E94A700BFC086E053
:1003F0000E94A700BBC08091390190913A014F97AC
:1004000020F082E00E94A700B1C086E00E94A70011
:10041000ADC08091390190913A014F9720F083E06F
:100420000E94A700A3C086E00E94A7009FC0809101
:100430003301909134014F9720F084E00E94A7008F
:1004400003C086E00E94A70080913301909134019F
:100450004F9720F085E00E94A70088C086E00E94A8
:10046000A70084C09091320180912101981709F46E
:100470007DC08091210180933201809100018F5FC6
:1004800080930001809121018934D1F168F4863490
:10049000D9F020F4823409F069C024C08734F1F126
:1004A000883409F063C055C08C34C1F120F48A341B
:1004B00009F05CC041C0823519F1833509F056C09E
:1004C00086E00E94A70052C08091390190913A01C4
:1004D0004F9720F080E00E94A70048C086E00E946D
:1004E000A70044C080913301909134014F9720F0D0
:1004F00081E00E94A7003AC086E00E94A70036C0B3
:100500008091390190913A014F9720F082E00E944A
:10051000A7002CC086E00E94A70028C08091390166
:1005200090913A014F9720F083E00E94A7001EC0EF
:1005300086E00E94A7001AC0809133019091340197
:100540004F9720F084E00E94A70003C086E00E943D
:10055000A70080913301909134014F9720F085E0FE
:100560000E94A70003C086E00E94A700FF91EF91C0
:10057000BF91AF919F918F917F916F915F914F91BB
:100580003F912F910F900FBE0F901F9018958130C3
:1005900019F08230B1F40BC0219A2998E0E8F0E01C
:1005A0008081806480838081806880830AC0229AF1
:1005B0002A98E0E8F0E08081806180838081806219
:1005C0008083E0E8F0E080818260808380818E7F9C
:1005D0008083E1E8F0E080818061808380818860B1
:1005E00080838081826080838FE39CE99093870081
:1005F00080938600909389008093880090938B006D
:1006000080938A000895CF92DF92EF92FF92CF936A
:10061000DF93813021F0823009F04AC025C0C091BB
:100620008600D091870070E080E090E00E94930601
:1006300020E030E040E351E40E9461070E94EC05B5
:100640006B017C01BE01605D774080E090E00E941C
:100650009306A70196010E9487050E946706709382
:1006600089006093880024C0C0918600D0918700E3
:1006700070E080E090E00E94930620E030E040E3EC
:1006800051E40E9461070E94EC056B017C01BE01F0
:10069000605D774080E090E00E949306A70196019C
:1006A0000E9487050E94670670938B0060938A0002
:1006B000DF91CF91FF90EF90DF90CF90089510924F
:1006C000C50087E68093C40088E98093C10086E076
:1006D0008093C2000895E0ECF0E080818823ECF77D
:1006E0008091C60008951F920F920FB60F921124A9
:1006F0008F939F93AF93BF9380911D0190911E01A3
:10070000A0911F01B09120010196A11DB11D809300
:100710001D0190931E01A0931F01B09320018091B1
:100720000D0190910E01A0910F01B0911001019661
:10073000A11DB11D80930D0190930E01A0930F0197
:10074000B0931001BF91AF919F918F910F900FBE09
:100750000F901F9018951F920F920FB60F921124B1
:100760008F929F92AF92BF92CF92DF92EF92FF92C1
:100770002F933F934F935F936F937F938F939F93A9
:10078000AF93BF938091130190911401009721F0D2
:10079000019709F07AC033C081E090E09093140192
:1007A0008093130186B590E0A0E0B0E0809319013A
:1007B00090931A01A0931B01B0931C0120911D017D
:1007C00030911E0140911F0150912001C0901901EC
:1007D000D0901A01E0901B01F0901C01AFEFB0E047
:1007E0000E94C407C60ED71EE81EF91EC0922A0139
:1007F000D0922B01E0922C01F0922D0146C0109274
:1008000014011092130186B590E0A0E0B0E080934F
:10081000150190931601A0931701B0931801209130
:100820001D0130911E0140911F0150912001C09087
:100830001501D0901601E0901701F09018018090FA
:10084000190190901A01A0901B01B0901C01AFEF0C
:10085000B0E00E94C407DC01CB0188199909AA09FC
:10086000BB09C80ED91EEA1EFB1EC0922E01D092F3
:100870002F01E0923001F092310110921D0110928F
:100880001E0110921F0110922001BF91AF919F9104
:100890008F917F916F915F914F913F912F91FF9039
:1008A000EF90DF90CF90BF90AF909F908F900F9080
:1008B0000FBE0F901F9018951F920F920FB60F92B8
:1008C00011248F929F92AF92BF92CF92DF92EF92BC
:1008D000FF922F933F934F935F936F937F938F93E9
:1008E0009F93AF93BF938091030190910401009770
:1008F00021F0019709F07AC033C081E090E0909335
:1009000004018093030186B590E0A0E0B0E08093FD
:10091000090190930A01A0930B01B0930C0120915F
:100920000D0130910E0140910F0150911001C090C6
:100930000901D0900A01E0900B01F0900C01AFEF9B
:10094000B0E00E94C407C60ED71EE81EF91EC09272
:100950002201D0922301E0922401F092250146C0A9
:10096000109204011092030186B590E0A0E0B0E07F
:100970008093050190930601A0930701B0930801AD
:1009800020910D0130910E0140910F015091100105
:10099000C0900501D0900601E0900701F090080199
:1009A0008090090190900A01A0900B01B0900C0179
:1009B000AFEFB0E00E94C407DC01CB0188199909B0
:1009C000AA09BB09C80ED91EEA1EFB1EC092260149
:1009D000D0922701E0922801F092290110920D0196
:1009E00010920E0110920F0110921001BF91AF9161
:1009F0009F918F917F916F915F914F913F912F9137
:100A0000FF90EF90DF90CF90BF90AF909F908F902E
:100A10000F900FBE0F901F901895579A5F982098CF
:100A200028980895880F991F880F991F9093120195
:100A300080931101609111017091120180E090E0AA
:100A40000E94930620E030E048E652E40E94FF0551
:100A50000E94EC050E946706862F972F08955F9AE3
:100A60008AE28A95F1F700C05F980895569A5E98D9
:100A700055985D980895880F991F880F991F909336
:100A8000020180930101609101017091020180E0F7
:100A900090E00E94930620E030E048E652E40E9495
:100AA000FF050E94EC050E946706862F972F089588
:100AB0005E9A8AE28A95F1F700C05E98089585B53E
:100AC000816085BD85B5826085BDEEE6F0E0808100
:100AD000816080830895E9E6F0E080818160808311
:100AE000808182608083E89AE8E6F0E0808181601E
:100AF0008083ABE6B0E08C9181608C9380818460D0
:100B00008083EDE6F0E08081806280830895505814
:100B1000BB27AA270ED084C175D130F07AD120F03E
:100B200031F49F3F11F41EF46AC10EF4E095E7FB27
:100B300037C1E92F86D180F3BA176207730784079C
:100B4000950718F071F49EF5B5C10EF4E0950B2EE3
:100B5000BA2FA02D0B01B90190010C01CA01A0010F
:100B60001124FF27591B99F0593F50F4503E68F16A
:100B70001A16F040A22F232F342F4427585FF3CFAB
:100B8000469537952795A795F0405395C9F77EF47C
:100B90001F16BA0B620B730B840BBAF09150A1F0C5
:100BA000FF0FBB1F661F771F881FC2F70EC0BA0F4B
:100BB000621F731F841F48F4879577956795B795D3
:100BC000F7959E3F08F0B3CF9395880F08F09927CB
:100BD000EE0F97958795089556D180F09F3740F492
:100BE00091110EF468C160E070E080E89FE3089521
:100BF00026F01B16611D711D811DD8C0F2C00CD0DE
:100C00000FC107D140F0FED030F021F45F3F19F062
:100C1000C7C0511150C1F3C014D198F39923C9F33F
:100C20005523B1F3951B550BBB27AA2762177307F2
:100C3000840738F09F5F5F4F220F331F441FAA1FA6
:100C4000A9F333D00E2E3AF0E0E830D09150504066
:100C5000E695001CCAF729D0FE2F27D0660F771F14
:100C6000881FBB1F261737074807AB07B0E809F0F6
:100C7000BB0B802DBF01FF2793585F4F2AF09E3F8B
:100C8000510568F08DC017C15F3FECF3983EDCF36F
:100C9000869577956795B795F7959F5FC9F7880F04
:100CA000911D9695879597F90895E1E0660F771F56
:100CB000881FBB1F621773078407BA0720F0621BE7
:100CC000730B840BBA0BEE1F88F7E0950895C1D023
:100CD00088F09F5790F0B92F9927B751A0F0D1F025
:100CE000660F771F881F991F1AF0BA95C9F712C0AF
:100CF000B13081F0DFD0B1E00895DCC0672F782FEC
:100D00008827B85F39F0B93FCCF38695779567951A
:100D1000B395D9F73EF490958095709561957F4F86
:100D20008F4F9F4F0895E89409C097FB3EF490952C
:100D30008095709561957F4F8F4F9F4F9923A9F0B4
:100D4000F92F96E9BB279395F69587957795679543
:100D5000B795F111F8CFFAF4BB0F11F460FF1BC087
:100D60006F5F7F4F8F4F9F4F16C0882311F096E91A
:100D700011C0772321F09EE8872F762F05C06623C8
:100D800071F096E8862F70E060E02AF09A95660F81
:100D9000771F881FDAF7880F9695879597F908953A
:100DA00097F99F6780E870E060E00895882371F408
:100DB000772321F09850872B762F07C0662311F4F4
:100DC00099270DC09051862B70E060E02AF09A952B
:100DD000660F771F881FDAF7880F9695879597F922
:100DE00008959F3F31F0915020F48795779567954E
:100DF000B795880F911D9695879597F908959FEF60
:100E000080EC089500240A941616170618060906A1
:100E1000089500240A941216130614060506089570
:100E2000092E0394000C11F4882352F0BB0F40F4F8
:100E3000BF2B11F460FF04C06F5F7F4F8F4F9F4F38
:100E4000089557FD9058440F551F59F05F3F71F0BA
:100E50004795880F97FB991F61F09F3F79F0879521
:100E60000895121613061406551FF2CF4695F1DFAA
:100E700008C0161617061806991FF1CF869571053A
:100E8000610508940895E5DFA0F0BEE7B91788F47E
:100E9000BB279F3860F41616B11D672F782F88275F
:100EA000985FF7CF869577956795B11D939596399D
:100EB000C8F30895E894BB2766277727CB0197F9F5
:100EC00008950BD0ADCF9EDF28F0A3DF18F0952357
:100ED00009F066CF94CF1124EECFB3DFA0F3959F36
:100EE000D1F3950F50E0551F629FF001729FBB2711
:100EF000F00DB11D639FAA27F00DB11DAA1F649FBD
:100F00006627B00DA11D661F829F2227B00DA11D6F
:100F1000621F739FB00DA11D621F839FA00D611DF5
:100F2000221F749F3327A00D611D231F849F600D16
:100F3000211D822F762F6A2F11249F5750408AF04F
:100F4000E1F088234AF0EE0FFF1FBB1F661F771FDB
:100F5000881F91505040A9F79E3F510570F020CF57
:100F6000AACF5F3FECF3983EDCF3869577956795C3
:100F7000B795F795E7959F5FC1F7FE2B880F911DF9
:100F80009695879597F908950E94CF07A59F900D94
:100F9000B49F900DA49F800D911D11240895A29FD0
:100FA000B001B39FC001A39F01D0B29F700D811DFE
:0A0FB0001124911D0895F894FFCF5D
:00000001FF
