S0100000554152545F6C69622E7372656342
S11300000C9434000C9446000C9446000C94460066
S11300100C9446000C9446000C9446000C94460044
S11300200C9446000C9446000C9446000C94460034
S11300300C9446000C9446000C9446000C94460024
S11300400C9446000C9446000C9448000C94460012
S11300500C9446000C9446000C9446000C94460004
S11300600C9446000C94460011241FBECFEFD8E038
S1130070DEBFCDBF21E0A0E0B1E001C01D92A03001
S1130080B207E1F70E945E000C9462000C94000039
S11300901F920F920FB60F9211240F900FBE0F9064
S11300A01F9018951092C50087E68093C40088E9D4
S11300B08093C10086E08093C20008950E9452009C
S10B00C07894FFCFF894FFCF00
S9030000FC
